:020000040800F2
:10000000000002207D350008093000080B30000890
:100010000D3000080F30000811300008000000000B
:10002000000000000000000000000000015B00086C
:100030001330000800000000A15B00081156000802
:10004000CD350008CD350008CD350008CD35000888
:10005000CD350008CD350008CD350008CD35000878
:10006000CD350008CD350008CD350008CD35000868
:10007000CD350008CD350008CD350008CD35000858
:10008000CD350008CD350008CD350008CD35000848
:10009000CD350008CD350008CD350008CD35000838
:1000A000CD35000815300008CD350008CD350008E5
:1000B000CD350008CD350008CD350008CD35000818
:1000C000CD350008CD350008CD350008CD35000808
:1000D000CD350008CD350008CD350008CD350008F8
:1000E000CD350008CD350008CD350008CD350008E8
:1000F000CD350008CD350008CD350008CD350008D8
:10010000CD350008CD350008CD350008CD350008C7
:10011000CD350008CD350008CD350008CD350008B7
:1001200025300008CD350008CD350008CD35000854
:10013000CD3500080000000000000000CD350008AB
:10014000CD350008CD350008CD350008CD35000887
:10015000CD350008CD350008CD350008CD35000877
:10016000CD350008CD350008CD350008CD35000867
:10017000CD350008CD350008CD3500080000000061
:1001800000000000CD350008000000000000000065
:10019000CD3500080000000000000000CD3500084B
:1001A000000000000000000000000000CD35000845
:1001B000CD350008CD350008CD350008CD35000817
:0401C000CD35000831
:1002000081F0004102E000BF83F0004330B54FEAC7
:1002100041044FEA430594EA050F08BF90EA020F34
:100220001FBF54EA000C55EA020C7FEA645C7FEAC7
:10023000655C00F0E2804FEA5454D4EB5555B8BFEA
:100240006D420CDD2C4480EA020281EA030382EA5B
:10025000000083EA010180EA020281EA0303362DED
:1002600088BF30BD11F0004F4FEA01314FF4801CC0
:100270004CEA113102D0404261EB410113F0004FD2
:100280004FEA03334CEA133302D0524263EB430389
:1002900094EA050F00F0A780A4F10104D5F1200E27
:1002A0000DDB02FA0EFC22FA05F2801841F1000182
:1002B00003FA0EF2801843FA05F359410EE0A5F156
:1002C00020050EF1200E012A03FA0EFC28BF4CF087
:1002D000020C43FA05F3C01851EBE37101F000453D
:1002E00007D54FF0000EDCF1000C7EEB00006EEB4A
:1002F0000101B1F5801F1BD3B1F5001F0CD34908D4
:100300005FEA30004FEA3C0C04F101044FEA44522A
:1003100012F5800F80F09A80BCF1004F08BF5FEAB1
:10032000500C50F1000041EB045141EA050130BD91
:100330005FEA4C0C404141EB0101013C28BFB1F5A3
:10034000801FE9D291F0000F04BF01460020B1FAEE
:1003500081F308BF2033A3F10B03B3F120020CDAC1
:100360000C3208DD02F1140CC2F10C0201FA0CF09F
:1003700021FA02F10CE002F11402D8BFC2F1200C04
:1003800001FA02F120FA0CFCDCBF41EA0C019040BA
:10039000E41AA2BF01EB0451294330BD6FEA040403
:1003A0001F3C1CDA0C340EDC04F11404C4F12002EE
:1003B00020FA04F001FA02F340EA030021FA04F300
:1003C00045EA030130BDC4F10C04C4F1200220FA57
:1003D00002F001FA04F340EA0300294630BD21FA95
:1003E00004F0294630BD94F0000F83F4801306BF5B
:1003F00081F480110134013D4EE77FEA645C18BF4F
:100400007FEA655C29D094EA050F08BF90EA020FE5
:1004100005D054EA000C04BF1946104630BD91EADD
:10042000030F1EBF0021002030BD5FEA545C05D1E0
:100430004000494128BF41F0004130BD14F580041F
:100440003CBF01F5801130BD01F0004545F0FE4193
:1004500041F470014FF0000030BD7FEA645C1ABFC8
:10046000194610467FEA655C1CBF0B46024650EAFF
:10047000013406BF52EA033591EA030F41F400212B
:1004800030BD00BF90F0000F04BF0021704730B5B1
:100490004FF4806404F132044FF000054FF0000186
:1004A00050E700BF90F0000F04BF0021704730B547
:1004B0004FF4806404F1320410F0004548BF40421C
:1004C0004FF000013EE700BF42004FEAE2014FEA71
:1004D00031014FEA02701FBF12F07F4393F07F4F4C
:1004E00081F06051704732F07F4208BF704793F04F
:1004F0007F4F04BF41F40021704730B54FF4607462
:1005000001F0004521F000411CE700BF50EA010264
:1005100008BF704730B54FF000050AE050EA01020D
:1005200008BF704730B511F0004502D5404261EB7D
:1005300041014FF4806404F132045FEA915C3FF4BE
:10054000D8AE4FF003025FEADC0C18BF03325FEA5B
:10055000DC0C18BF033202EBDC02C2F1200300FA0C
:1005600003FC20FA02F001FA03FE40EA0E0021FA31
:1005700002F11444BDE600BF4FF0FF3C06E000BFAF
:100580004FF0010C02E000BF4FF0010C4DF804CD1C
:100590004FEA410C7FEA6C5C4FEA430C18BF7FEADC
:1005A0006C5C1BD001B050EA410C0CBF52EA430C0A
:1005B00091EA030F02BF90EA020F0020704710F18A
:1005C000000F91EA030F58BF994208BF90422CBF19
:1005D000D8176FEAE37040F0010070474FEA410C12
:1005E0007FEA6C5C02D150EA013C07D14FEA430C30
:1005F0007FEA6C5CD6D152EA033CD3D05DF8040BA1
:10060000704700BF8446104662468C4619466346D2
:1006100000E000BF01B5FFF7B7FF002848BF10F1A9
:10062000000F01BD4DF808EDFFF7F4FF0CBF0120EE
:1006300000205DF808FB00BF4DF808EDFFF7EAFF6A
:1006400034BF012000205DF808FB00BF4DF808ED25
:10065000FFF7E0FF94BF012000205DF808FB00BF1A
:100660004DF808EDFFF7CEFF94BF012000205DF8A4
:1006700008FB00BF4DF808EDFFF7C4FF34BF0120B1
:1006800000205DF808FB00BF4A0011D212F50012ED
:1006900011D20DD56FF47873B3EB62520ED44FEADA
:1006A000C12343F0004343EA505323FA02F070475A
:1006B0004FF00000704750EA013002D14FF0FF3098
:1006C00070474FF0000070474FEA4102B2F1E0433B
:1006D00024BFB3F5001CDCF1FE5C0DD901F0004C29
:1006E0004FEAC0024CEA5070B2F1004F40EB830079
:1006F00008BF20F00100704711F0804F21D113F1A5
:100700003872BCBF01F00040704741F480114FEADD
:100710005252C2F11802C2F1200C10FA0CF320FA66
:1007200002F018BF40F001004FEAC1234FEAD32383
:1007300003FA0CFC40EA0C0023FA02F34FEA4303ED
:10074000CCE77FEA625307D150EA01331EBF4FF076
:10075000FE4040F44000704701F0004040F0FE4091
:1007600040F40000704700BF53B94AB9002908BFE0
:1007700000281CBF4FF0FF314FF0FF3000F00CB8E5
:10078000ADF1080C6DE904CE07F0A8FADDF804E03D
:10079000DDE9022304B07047704700BF000000008D
:1007A00002780B78012A28BF9A4240F0D8806DE980
:1007B000044540EA0104CDE902676FF0000C4FEAFE
:1007C00044721AB380EA010414F0070F6BD100F0F1
:1007D000070420F0070004F0030521F007014FEAA9
:1007E000C505F0E8042314F0040FF1E804670CFADF
:1007F00005F462EA040266EA04060BD063EA040325
:10080000624667EA0407664604E000BFF0E8042396
:10081000F1E8046782FA4CF582EA0604A4FA8CF443
:100820006CBB83FA4CF583EA0705A5FA8CF595B9FC
:1008300050E9022351E9026782FA4CF582EA060484
:10084000A4FA8CF483FA4CF583EA0705A5FA8CF533
:100850002543DBD09CB92DBAB5FA85F424F0070402
:1008600027FA04F1DDE9026723FA04F303F0FF003D
:1008700001F0FF01FDE80445A0EB0100704724BA38
:10088000B4FA84F424F0070426FA04F1DDE90267DF
:1008900022FA04F202F0FF0001F0FF01FDE8044536
:1008A000A0EB0100704714F0030F3CD110F00304DB
:1008B00028D150F8082B51F8083B82FA4CF582EA0F
:1008C0000305A5FA8CF55DB950F8042C51F8043CE9
:1008D00082FA4CF582EA0305A5FA8CF5002DE8D0E2
:1008E0002DBAB5FA85F424F0070423FA04F122FAAC
:1008F00004F202F0FF0001F0FF01FDE80445A0EB67
:10090000010070474FEAC40420F0030050F8082BA0
:1009100021F0030151F8083B0CFA04F462EA0402E6
:1009200063EA0403C9E710F003041DD0A1EB04013E
:1009300020F00300E40750F8042B06D012D28B7885
:100940005FFAA2F4E41A06D12BB1CB785FFAB2F4C5
:10095000E41A00D133B920465DF8104B7047A2EB82
:100960000300704701F1040150F8042BCC0721F07B
:10097000030151F8043B48D824D222F07F4482FA84
:100980004CF594EA1325A5FA8CF50AD165B951F80E
:10099000043B84EA0204B4EB036F0ED150F8042B3D
:1009A000EBE74FEA132355E035F07F454DD108784A
:1009B000FDE80445C0F1000070474FEA126203F001
:1009C000FF0347E002EA1C4482FA4CF594EA13451F
:1009D000A5FA8CF50AD165B951F8043B84EA020402
:1009E000B4EB034F0CD150F8042BEBE74FEA134361
:1009F00030E015EA1C4528D10B884FEA124229E065
:100A00004FEA124203EA1C4324E002F0FF0482FA98
:100A10004CF594EA1365A5FA8CF50AD165B951F83D
:100A2000043B84EA0204B4EB032F09D150F8042BF1
:100A3000EBE74FEA13630DE015F0FF0F05D10B68EC
:100A40004FEA122223F07F4304E04FF00000FDE85C
:100A50000445704712BA1BBA82FA4CF482EA0304C6
:100A6000A4FA8CF5B5FA85F402FA04F203FA04F359
:100A70004FEA1260FDE80445A0EB1360704700BF29
:100A800001F0FF01102A2BDB10F0070F08D010F83F
:100A9000013B013A8B422DD010F0070F42B3F6D143
:100AA000F0B441EA012141EA014122F007047FF05C
:100AB00000070023F0E80256083C85EA010586EAB3
:100AC000010685FA47F5A3FA87F586FA47F6A5FAEF
:100AD00087F68EB9EED1F0BC01F0FF0102F00702FB
:100AE00032B110F8013B013A83EA010313B1F8D1A6
:100AF0000020704701387047002D06BF3546033887
:100B0000073815F0010F07D1013015F4807F02BFBF
:100B1000013015F4C03F0130F0BC0138704700BF10
:100B2000844641EA000313F003036DD1403A41D3F8
:100B300051F8043B40F8043B51F8043B40F8043BB7
:100B400051F8043B40F8043B51F8043B40F8043BA7
:100B500051F8043B40F8043B51F8043B40F8043B97
:100B600051F8043B40F8043B51F8043B40F8043B87
:100B700051F8043B40F8043B51F8043B40F8043B77
:100B800051F8043B40F8043B51F8043B40F8043B67
:100B900051F8043B40F8043B51F8043B40F8043B57
:100BA00051F8043B40F8043B51F8043B40F8043B47
:100BB000403ABDD2303211D351F8043B40F8043BE7
:100BC00051F8043B40F8043B51F8043B40F8043B27
:100BD00051F8043B40F8043B103AEDD20C3205D3F7
:100BE00051F8043B40F8043B043AF9D2043208D0EF
:100BF000D2071CBF11F8013B00F8013B01D30B8861
:100C000003806046704700BF082A13D38B078DD03E
:100C100010F003038AD0C3F10403D21ADB071CBF10
:100C200011F8013B00F8013B80D331F8023B20F87A
:100C3000023B7BE7043AD9D3013A11F8013B00F8B3
:100C4000013BF9D20B7803704B7843708B7883703B
:100C50006046704700000000000000000000000037
:100C60000000000000000000000000000000000084
:100C70000000000000000000000000000000000074
:100C800030B490F800F020F007016FF0000C10F085
:100C9000070491F820F040F048804FF000046FF016
:100CA0000700D1E9002391F840F000F1080082FA32
:100CB0004CF2A4FA8CF283FA4CF3A2FA8CF34BBBFD
:100CC000D1E9022382FA4CF200F10800A4FA8CF276
:100CD00083FA4CF3A2FA8CF3E3B9D1E9042382FA44
:100CE0004CF200F10800A4FA8CF283FA4CF3A2FA59
:100CF0008CF37BB9D1E9062301F1200182FA4CF291
:100D000000F10800A4FA8CF283FA4CF3A2FA8CF3F7
:100D1000002BC6D0002A04BF04301A4612BAB2FA19
:100D200082F200EBD20030BC7047D1E9002304F01E
:100D30000305C4F100004FEAC50514F0040F91F853
:100D400040F00CFA05F562EA05021CBF63EA0503F0
:100D500062464FF00004AAE770B54FF0FF0C4CF468
:100D6000E06C1CEA11541DBF1CEA135594EA0C0FE9
:100D700095EA0C0F00F0DEF82C4481EA030621EA24
:100D80004C5123EA4C5350EA013518BF52EA03355F
:100D900041F4801143F4801338D0A0FB02CE4FF011
:100DA0000005E1FB02E506F00042E0FB03E54FF041
:100DB0000006E1FB03569CF0000F18BF4EF0010E39
:100DC000A4F1FF04B6F5007F64F5407404D25FEA35
:100DD0004E0E6D4146EB060642EAC62141EA5551E8
:100DE0004FEAC52040EA5E504FEACE2EB4F1FD0C2A
:100DF00088BFBCF5E06F1ED8BEF1004F08BF5FEAA8
:100E0000500E50F1000041EB045170BD06F0004659
:100E100046EA010140EA020081EA0301B4EB5C0406
:100E2000C2BFD4EB0C0541EA045170BD41F48011FE
:100E30004FF0000E013C00F3AB8014F1360FDEBF23
:100E4000002001F0004170BDC4F10004203C35DAFF
:100E50000C341BDC04F11404C4F1200500FA05F382
:100E600020FA04F001FA05F240EA020001F0004223
:100E700021F0004110EBD37021FA04F642EB060199
:100E80005EEA430E08BF20EAD37070BDC4F10C04C3
:100E9000C4F1200500FA04F320FA05F001FA04F287
:100EA00040EA020001F0004110EBD37041F1000173
:100EB0005EEA430E08BF20EAD37070BDC4F120057E
:100EC00000FA05F24EEA020E20FA04F301FA05F2E6
:100ED00043EA020321FA04F001F0004121FA04F28E
:100EE00020EA020000EBD3705EEA430E08BF20EA5E
:100EF000D37070BD94F0000F0FD101F00046400098
:100F000041EB010111F4801F08BF013CF7D041EA19
:100F1000060195F0000F18BF704703F0004652001D
:100F200043EB030313F4801F08BF013DF7D043EAEE
:100F30000603704794EA0C0F0CEA135518BF95EAA4
:100F40000C0F0CD050EA410618BF52EA4306D1D12B
:100F500081EA030101F000414FF0000070BD50EA4A
:100F6000410606BF1046194652EA430619D094EAD4
:100F70000C0F02D150EA013613D195EA0C0F05D1BE
:100F800052EA03361CBF104619460AD181EA030112
:100F900001F0004141F0FE4141F470014FF00000CA
:100FA00070BD41F0FE4141F4780170BD70B54FF065
:100FB000FF0C4CF4E06C1CEA11541DBF1CEA1355E5
:100FC00094EA0C0F95EA0C0F00F0A7F8A4EB0504C7
:100FD00081EA030E52EA03354FEA013100F08880BE
:100FE0004FEA03334FF0805545EA131343EA126387
:100FF0004FEA022245EA111545EA10654FEA00263C
:101000000EF000419D4208BF964244F1FD0404F5F4
:10101000407402D25B084FEA3202B61A65EB030550
:101020005B084FEA32024FF480104FF4002CB6EB0D
:10103000020E75EB030E22BFB61A754640EA0C008D
:101040005B084FEA3202B6EB020E75EB030E22BFCD
:10105000B61A754640EA5C005B084FEA3202B6EB0E
:10106000020E75EB030E22BFB61A754640EA9C00CD
:101070005B084FEA3202B6EB020E75EB030E22BF9D
:10108000B61A754640EADC0055EA060E18D04FEA5B
:10109000051545EA16754FEA06164FEAC30343EAFB
:1010A00052734FEAC2025FEA1C1CC0D111F4801FC8
:1010B0000BD141EA00014FF000004FF0004CB6E7C1
:1010C00011F4801F04BF01430020B4F1FD0C88BF60
:1010D000BCF5E06F3FF6AFAEB5EB030C04BFB6EB6B
:1010E000020C5FEA500C50F1000041EB045170BD5E
:1010F0000EF0004E4EEA113114EB5C04C2BFD4EB8B
:101100000C0541EA045170BD41F480114FF0000E0E
:10111000013C90E645EA060E8DE60CEA135594EA8A
:101120000C0F08BF95EA0C0F3FF43BAF94EA0C0F8D
:101130000AD150EA01347FF434AF95EA0C0F7FF402
:1011400025AF104619462CE795EA0C0F06D152EA56
:1011500003353FF4FDAE1046194622E750EA41063A
:1011600018BF52EA43067FF4C5AE50EA41047FF44B
:101170000DAF52EA43057FF4EBAE12E74FEA410CA4
:101180007FEA6C5C02D150EA013C0AD14FEA430C81
:101190007FEA6C5C02D152EA033C02D14FF00000BE
:1011A00070474FF0010070474FEA410212F50012FC
:1011B00015D211D56FF47873B3EB625212D94FEA9E
:1011C000C12343F0004343EA505311F0004F23FA88
:1011D00002F018BF404270474FF00000704750EADD
:1011E000013005D111F0004008BF6FF0004070479A
:1011F0004FF00000704700BF0348044B834202D009
:10120000034B03B118477047AC070020AC07002020
:10121000000000000548064B1B1AD90F01EBA30183
:10122000491002D0034B03B118477047AC070020A8
:10123000AC0700200000000010B5064C237843B92D
:10124000FFF7DAFF044B13B10448AFF3008001232A
:10125000237010BDB00700200000000040E500082A
:1012600008B5054B1BB105490548AFF30080BDE843
:101270000840FFF7CFBF00BF00000000B407002008
:1012800040E5000800B585B08DF80F0000230193FC
:10129000009301231A460DF10F01034800F080FC72
:1012A00005B05DF804FB00BF0064004000B585B0E8
:1012B0008DF80F00002301930093692301220DF1A3
:1012C0000F01034800F06CFC05B05DF804FB00BFA3
:1012D0000064004000B585B00023009301930293A1
:1012E00003932748274A026043608360012202611A
:1012F000027680F82030C36223498162C3600423F0
:10130000C36180F83020426102F0AAFA40BB0A2390
:10131000009301230193062302936946184802F0C3
:10132000CBFA00BB052300930223019369461448BE
:1013300002F0C2FAD0B90C2300930323019369464B
:101340000F4802F0B9FAA0B90723009304230193D0
:1013500069460B4802F0B0FA70B905B05DF804FBBD
:1013600001F0C8FAD3E701F0C5FADBE701F0C2FAF1
:10137000E1E701F0BFFAE7E701F0BCFAEDE700BFF3
:101380002C080020002001400100000F70B588B03B
:10139000002303930493059306930793026803F1D4
:1013A000804303F590339A4201D008B070BD0446E3
:1013B0000025009503F58C335A6C42F480725A6410
:1013C0005A6C02F480720092009A01951A6B42F0F6
:1013D00004021A631A6B02F004020192019A029548
:1013E0001A6B42F001021A631B6B03F001030293B4
:1013F000029B072303930326049603A9174802F0D0
:1014000069FFE02303930496059503A9144802F0AD
:1014100061FF1448144B036045608560C5604FF45C
:10142000806303614FF4805343614FF480438361D1
:101430004FF48073C3614FF40033036204234362AB
:101440008662C562056302F0F1FD18B9054BA3631E
:101450009C63AAE701F04EFAF8E700BF00080240DB
:1014600000000240CC07002010640240032801D88D
:101470000020704708B5034B034AD121034806F00A
:101480008BFD00BF64E500089CE500087CE50008D2
:1014900010B586460298AEEB010CC41A04FB0CFC96
:1014A000541A9CFBF4FC9C448E4500DB6346964535
:1014B00000DC184610BD10B5092807DC01F012FC4D
:1014C000002001F0C9FB01F01FFB10BD044601F034
:1014D00003FC204601F0C0FBF7E708B50020FFF74A
:1014E000EAFF08BD08B51D491D4B186808609B88B8
:1014F0008B80A1F12103002201F8212C21F81F2C5F
:1015000021F81D2C21F81B2C21F8192C142221F86C
:10151000172C7D2221F8152C4FF4A571D98140F2AA
:101520000311198240F23E205882D9829A820D4AD4
:10153000DA610220FFF79AFF00EE100A1920B8EED8
:10154000400A01F093F90220FFF790FF012001F01B
:10155000F5F80A2005F062FDEBE700BFC1080020A6
:10156000A8E5000852B8DE3F08B50220FFF77EFF6D
:1015700040F2B633984201D9012008BD0020FCE7B3
:1015800038B505460C4691F820306BB9B0F5C87FE8
:101590001ADC238B092B1FD9012384F8203094F8FF
:1015A0002030FBB9012038BDFFF7DEFF10B10A2360
:1015B0002383EEE7B5F59B7F03DA238B013B23837F
:1015C000E7E70A232383E4E7FFF7CEFF0028E0D014
:1015D000238B01332383DCE7002BE0D184F8203018
:1015E0002383DCE70020DEE708B50220FFF73EFF9B
:1015F000A0F51670B0F52F7F01D9002008BD01209D
:10160000FCE70000F0B583B06B4A6C4B18681060C3
:101610001B791371A2F12103002402F8214C22F856
:101620001F4C22F81D4C22F81B4C22F8194C142296
:101630005A81B421998140F24732DA8182221A829A
:1016400040F2194058825E48D8619982DA82254674
:1016500060E000F029FC022817D00020FFF72BFFE4
:10166000584A2946204601F045FB00284BD0FFF799
:10167000BBFF002842D053492046FFF781FFC0B38B
:101680000421002001F0A8F841E04FF4FA63009330
:1016900000234FF416724FF49B712046FFF7F8FEBB
:1016A00006B2484A2946204601F05EFB30B9FFF7F2
:1016B00014FF0421012001F08FF828E0FFF794FFC8
:1016C00098B140492046FFF75BFF50B1042100204C
:1016D00001F082F8042000F0A3FC3046FFF7EBFE97
:1016E00015E00020FFF7E7FE11E00020FFF7E3FE22
:1016F0000DE00421012001F06FF808E00421012031
:1017000001F06AF803E00421012001F065F80520EA
:1017100005F084FC0020FFF7A9FEFEF7C3FE0022BF
:10172000294BFFF719FB06460F462046FEF7BAFE87
:101730000022254BFFF710FB02460B463046394688
:10174000FEF764FDFEF7A0FF84B20120FFF78EFED6
:10175000FEF7A8FE00221C4BFFF7FEFA06460F46D6
:101760002846FEF79FFE0022174BFFF7F5FA0246C8
:101770000B4630463946FEF749FDFEF785FF85B238
:101780000220FFF773FE002000F0D8FF0D4A294623
:10179000204601F0AFFA00287FF45BAF042000F090
:1017A00039FC0421012001F017F800F07DFB02282C
:1017B000B0D1FFF792FEADE795080020B0E5000834
:1017C00052B89E3F740800200000E03F014B012208
:1017D0001A7070477C090020014B00225A71704733
:1017E0007C090020024B172283F87C29704700BF38
:1017F0007C090020014B00221A60704782090020FA
:10180000024B00221A601A71704700BFEE120020CE
:10181000024B00221A601A71704700BFF3120020B9
:1018200000B583B00D490A88013292B20A800C4B90
:10183000A3FB02035B0B42F2107000FB132292B277
:101840000A800849684608F0E1FA04226946064819
:1018500008F0E4FC03B05DF804FB00BFFA120020BE
:101860005917B7D1B8E500087D09002008B5FFF782
:10187000ADFFFFF7B1FFFFF7BDFFFFF7C1FFFFF7B8
:10188000C7FFFFF7AFFFFFF7CBFF08BD30B583B051
:10189000FFF7ECFF002526E0C5EBC503DC000834AC
:1018A000134B1C44134B53F825301A889B786280E5
:1018B00023710A226946104B585D06F08DFB9DF896
:1018C000003063710D4B53F825200D4901A808F035
:1018D0009DFABDF80430E3803222002104F10800B3
:1018E00008F04AFC01352A2DD6DD03B030BD00BF1B
:1018F0007C0900202C00002000000020CC080020E3
:10190000C0E5000808B5094B1B780BB1002008BDE5
:10191000FFF7BCFF012004F0B8FD054B1860054B34
:1019200000221A700120014B1870F0E7FD12002010
:1019300078090020FC12002008B50C4B1B7813B16D
:101940000B4B1B7803B108BD0A4B19680A4B18688A
:1019500004F0BCFE0128F6D1FFF762FF00231A460F
:1019600019460548006804F0C0FCECE7FD120020B1
:10197000FC120020D800002078090020F0B591B0BA
:1019800006460C46C1EBC103404A02EBC302557B3D
:10199000A5F1300700210291332203A808F0ECFBE7
:1019A00047B1313D072D6BD8DFE805F02C343B42C1
:1019B0004E585C633378364A332102A808F0E2F9C6
:1019C000C4EBC40C4FEACC0C0CF1080C2F4B9C441C
:1019D0000DF1080E0CF1080C0EAD74460FCCCCF8CE
:1019E0000000CCF80410CCF80820CCF80C30A64647
:1019F0000CF1100CAC42F0D12388ACF8003001207F
:101A000011B0F0BDB6F90030224A332102A808F027
:101A1000B9F9D5E73368204A332102A808F0B2F9B2
:101A2000CEE733681D4A332102A808F0ABF9C7E7B7
:101A3000D6ED007AFCEEE77A17EE903A174A33219A
:101A400002A808F09FF9BBE7D6E90023CDE90023FF
:101A5000134A332102A808F095F9B1E733788DF8DD
:101A60000830ADE733460F4A332102A808F08AF95F
:101A7000A6E73378002BA3D001238DF808309FE729
:101A8000094B02221A700020BAE700BF7C0900202F
:101A9000C8E50008D0E50008D8E50008E0E5000842
:101AA000E8E50008F0E50008FC12002008B503E0B6
:101AB0000E4B186805F0B2FAFFF73EFF0320BFEEA9
:101AC000000A00F0D3FE00F0E7FF0D2000F0CEFE8C
:101AD00015209FED070A00F0C9FE00F0E5F9022885
:101AE000E6D0044B186805F099FAE5E7E00000201D
:101AF00000000000DC00002008B50B480B4B036021
:101B00001023436000238360C36003614361037655
:101B100043768376C3760377437701F0A3FF00B95A
:101B200008BD00F0E7FEFBE7001300200064004062
:101B300000B589B00023039304930593069307939C
:101B40000268154B9A4202D009B05DF804FB0021EF
:101B5000019103F5EA331A6C42F000721A641A6CB0
:101B600002F000720192019A02911A6B42F0020295
:101B70001A631B6B03F002030293029B4FF4407342
:101B8000039302230493032306930923079303A9D2
:101B9000024802F09FFBD7E70064004000040240C7
:101BA00038B50D4614469DF810109DF81420082CE9
:101BB00043DC49B122490220C8604AB1204A0421CD
:101BC0009160536000230CE01D490020C860F4E7D9
:101BD0001B4A002191601360F4E7E85C194AD05475
:101BE0000133A342F9DB16490C61174B154A17481C
:101BF00002F00CF880B1134B154A92E8030018600C
:101C00009980090C9971621C0A2392B229461148E5
:101C100003F096FC002038BD0A4B0F4A92E80300FF
:101C200018609980090C9971621C0A2392B22946A6
:101C3000084803F085FC0120EDE70320EBE700BF37
:101C4000341300202C130020281300200013002040
:101C5000A4E6000874140020D4E6000810B5044679
:101C6000FFF70EF8231813F8013C03B9235410BDF5
:101C700010B58EB004462049FEF792FD80B11F4991
:101C80002046FEF78DFD002830D01D492046FEF786
:101C900087FD50B931221B4901A808F0BFFA04E0C2
:101CA0003122194901A808F0B9FA01A8FFF7D6FFB7
:101CB00001A8FEF7E5FF154C0A2382B201A92046D0
:101CC00003F03EFC124B1A69124901A808F0A6FA6B
:101CD00001A8FFF7C3FF01A8FEF7D2FF0A2382B2D3
:101CE00001A9204603F02CFC0EB010BD31220A4998
:101CF00001A808F093FAD8E7FCE600082CE70008F2
:101D00005CE7000860E7000800E7000874140020A2
:101D1000541300204C13002030E7000808B50021C0
:101D2000074802F09DF808B9012008BD054B064A96
:101D30000021034801F0DFFF0028F6D00120F4E77E
:101D4000001300204C1300205413002000B58FB066
:101D5000474801F02DFF39E0692B74D0882B35D12D
:101D60004448FFF785FF0DF1040C434C0FCCACE861
:101D70000F0094E80700ACE80300ACF8002001A8CD
:101D8000FEF77EFF3D4C0A2382B201A9204603F0F4
:101D9000D7FB3B4901A808F04FFB01A8FEF770FFF5
:101DA0000A2382B201A9204603F0CAFB354B1B6807
:101DB000ADF804301B0C8DF8063001A8FEF760FF6B
:101DC0000A2382B201A9204603F0BAFBFFF7A6FF5F
:101DD0000028FBD12C4B9B68002BF7D12A4B5B686A
:101DE000B02B29D8A02BB7D3A03B102BEED801A243
:101DF00052F823F05F1E0008CD1D0008671E000882
:101E0000CD1D0008CD1D0008CD1D00084F1E000887
:101E1000CD1D0008CD1D0008CD1D0008CD1D0008FA
:101E2000CD1D0008CD1D0008CD1D0008CD1D0008EA
:101E3000CD1D0008571E0008B3F5846FC6D11348A6
:101E4000FFF716FFC2E71248FFF712FFBEE70C4884
:101E500000F0D8FEBAE70A4800F086FEB6E7084868
:101E600000F02EFEB2E7064800F044FEAEE700BFE9
:101E700000130020FCE600088CE700087414002022
:101E80004C13002058E70008541300205CE70008BA
:101E90002CE70008FEE70000042801D8014B187069
:101EA000704700BF70130020014B1878704700BFC7
:101EB0007013002010B50B4C00222021204602F0A8
:101EC00000FB00220821204602F0FBFA0022042138
:101ED000204602F0F6FA00221021204602F0F1FA24
:101EE00010BD00BF0010024010B50B4C0122202194
:101EF000204602F0E6FA01220821204602F0E1FA2B
:101F000001220421204602F0DCFA012210212046A1
:101F100002F0D7FA10BD00BF0010024010B5064C09
:101F200001222021204602F0CCFA0122082120467D
:101F300002F0C7FA10BD00BF0010024010B5064CF9
:101F400000222021204602F0BCFA0122082120466E
:101F500002F0B7FA10BD00BF0010024010B5064CE9
:101F600001222021204602F0ACFA0022082120465E
:101F700002F0A7FA10BD00BF0010024010B5064CD9
:101F800000220421204602F09CFA01221021204662
:101F900002F097FA10BD00BF0010024010B5064CC9
:101FA00001220421204602F08CFA00221021204652
:101FB00002F087FA10BD00BF0010024010B5064CB9
:101FC00001220421204602F07CFA01221021204641
:101FD00002F077FA10BD00BF0010024008B50A46B3
:101FE000012807D0022808D068B10021074800F076
:101FF0000DFC07E04FF4007101E04FF480710448DC
:1020000002F05FFA08BD4FF48061F8E7A8E7000826
:1020100000100240014B01221A5470477413002033
:10202000014B00221A5470477413002008B538E0A1
:102030000133DBB2062BFBD900F02AFCF2EE0A7A60
:10204000B4EEE70AF1EE10FA2DD50221012000F0DE
:10205000C3FB01F02FF900F0EBFCDFED1A7AB4EED0
:10206000E70AF1EE10FA08DC00F002FDDFED167A67
:10207000B4EEE70AF1EE10FA1ADD0121084600F08D
:10208000ABFB00F0D5FCDFED117AB4EEE70AF1EE20
:1020900010FA12DD0021012000F09EFBFA2001F071
:1020A00031FB0023C6E70221002000F095FBD0E7BA
:1020B0000121002000F090FBE3E70021084600F03A
:1020C0008BFBEBE70010A4460090624600B0B346DD
:1020D00000B583B000220192094B196B41F48001D5
:1020E00019631B6B03F480030193019B05213820C6
:1020F00001F01EFF382001F02BFF03B05DF804FB58
:102100000038024010B5044601B188470C2C6CD849
:10211000DFE804F00C0711161B6B20252A37445109
:102120005E000021334800F071FB10BD00213248F1
:1021300000F06CFBF9E70021304800F067FBF4E7A2
:1021400000212F4800F062FBEFE700212D4800F04E
:102150005DFBEAE700212C4800F058FBE5E7002191
:102160002A4800F053FBE0E7294B1B78022BDCD810
:102170000021284800F04AFB254A137801331370E8
:10218000D3E7254B1B78022BCFD80021234800F042
:102190003DFB214A137801331370C6E7204B1B78AF
:1021A000022BC2D800211F4800F030FB1C4A1378D4
:1021B00001331370B9E71C4B1B78022BB5D80021F3
:1021C0001A4800F023FB184A137801331370ACE768
:1021D000174B1B78022BA8D80021164800F016FBDD
:1021E000134A1378013313709FE70021124800F05F
:1021F0000DFB9AE7C4E70008E8E7000804E80008D8
:1022000020E800083CE8000854E8000868E80008F6
:102210007F13002080E800087E13002098E8000863
:102220007D130020B0E800087C130020C8E80008F7
:102230007B130020E0E80008F8E8000808B501205A
:1022400003F0B8FAFBE7000008B5274A0021274849
:1022500003F018FA264B1860264A0021264803F09E
:1022600011FA264B1860264A0021264803F00AFA84
:10227000254B1860254A0021254803F003FA254B19
:102280001860254A0021254803F0FCF9244B18600A
:10229000244A0021244803F0F5F9244B1860244A0D
:1022A0000021244803F0EEF9234B1860234A002153
:1022B000234803F0E7F9234B1860234A0021234801
:1022C00003F0E0F9224B1860224A0021224803F073
:1022D000D9F9224B1860224A0021224803F0D2F992
:1022E000214B186008BD00BF0CEB00083D22000820
:1022F000A8130020E8EA00082D200008A4130020FD
:10230000C4EA000889270008A0130020A0EA0008FA
:10231000951E00089C1300207CEA00084D1D000853
:102320009813002058EA0008AD1A00089413002002
:1023300034EA0008193300089013002010EA00085E
:10234000392500088C130020ECE90008D925000885
:1023500088130020C8E90008E51400088413002051
:10236000A4E9000805160008801300202DE9F043B9
:102370008DB000240794089409940A940B94019456
:10238000684B1A6B42F010021A631A6B02F01002CB
:102390000192019A02941A6B42F004021A631A6BBA
:1023A00002F004020292029A03941A6B42F0800235
:1023B0001A631A6B02F080020392039A04941A6B58
:1023C00042F001021A631A6B02F001020492049AAD
:1023D00005941A6B42F002021A631A6B02F00202B1
:1023E0000592059A06941A6B42F008021A631B6B59
:1023F00003F008030693069B4B4F224641F23C71C3
:10240000384602F05EF8DFF82C8122460321404670
:1024100002F057F8454E22464EF28051304602F007
:1024200050F841F23C7307934FF00109CDF820902A
:1024300009940A9407A9384601F04CFF4EF6C303ED
:10244000079303250895099407A9384601F042FF30
:102450004FF6D873079308950994A7F5006707A965
:10246000384601F037FF07950895099407A93048C9
:1024700001F030FF0795CDF8209009940A9407A940
:10248000404601F027FF202307930894099407A9E9
:10249000384601F01FFF0723079308940994A7F516
:1024A000806707A9384601F015FF4BF28043079378
:1024B0000895099407A9384601F00CFF4EF28053A5
:1024C0000793CDF8209009940A9407A9304601F0AB
:1024D00001FF4FF4D25307930894099407A930469B
:1024E00001F0F8FE4FF4F85307930895099407A9F3
:1024F000404601F0EFFE3F2307930895099407A992
:10250000304601F0E7FE6023079302230893099405
:102510000A9509230B9307A9384601F0DBFE0DB09D
:10252000BDE8F0830038024000100240000C024079
:10253000001C02400000024010B582B0002401944B
:102540001B4B1C7008E01A4B1B7893B1012B15D064
:10255000174B02221A700024642301AA00210846A6
:1025600005F020F80128EED0092C0CD80134E4B293
:10257000F2E700210F4800F049F9E9E700210E4891
:1025800000F044F9E4E70A4B1B78022B06D0084B15
:102590001B7843B9064B00221A70DDE7002107487B
:1025A00000F034F9F3E7024B01221A70D4E700BFC0
:1025B000AC13002030EB000850EB000870EB000873
:1025C000014B1878704700BFAD130020014B1878FD
:1025D000704700BFAC13002010B582B000240194F6
:1025E000314B1C702CE0019B012B34D12E4B1B78FE
:1025F000012B05D04BB12C4B02221A70002410E0A5
:1026000001212A4800F002F9F5E70121284800F0ED
:10261000FDF8F0E7092C2BD80134E4B2224B02225A
:102620001A70FFF7D3FF022803D1FFF7C9FF022872
:1026300031D00520FFF7EEFC0321012000F0CCF89B
:102640000820FEF733FE642301AA0021084604F0A7
:10265000A9FF0128C7D0144B1B78022BDAD0B3B9DD
:10266000092C0CD80134E4B20F4B00221A70D8E7C1
:1026700001210D4B19700F4800F0C8F8D1E70A4B43
:1026800000221A7001210C4800F0C0F8C9E70520AB
:10269000FFF7C0FCC5E70321002000F09DF80520EE
:1026A000FFF7BEFCCCE700BFAD13002084EB0008B1
:1026B000A4EB0008C8EB0008ECEB0008014B18681D
:1026C000704700BF8C13002008B50B4B1B6843B14B
:1026D0004FF0500383F31188BFF36F8FBFF34F8F19
:1026E000FEE703F09AF8044B186000B108BD0349F7
:1026F0000620FFF707FDF9E7BC13002001270008BB
:1027000008B50121014800F081F808BD14EC00086B
:1027100008B50848084B0360062343604FF4FA737A
:10272000836001F0D4FE10B9FFF7CEFF08BD00F0C2
:10273000E1F8F9E7B01300200030004008B5014689
:10274000084B186828B1012303FA01F103F0F8F8E7
:1027500008BD4FF0500383F31188BFF36F8FBFF3B1
:102760004F8FFEE7BC130020064B5B6F13F0005F3A
:1027700006D0044A536F43F08073536701207047BB
:10278000002070470038024000B583B0084801F0CF
:10279000CAFE322000F0B6FF4FF4FA730093012313
:1027A0001A4607210348006803F045F8EEE700BF2A
:1027B000B0130020BC130020064B1B780BB1002087
:1027C000704710B50124034B1C70FFF79BF820469F
:1027D00010BD00BFC413002000B583B08DF8070002
:1027E000064B1B7813B903B05DF804FB2431C9B262
:1027F0000DF10700FFF7C2F8F5E700BFC413002092
:10280000014B01221A607047C0130020154B1B6852
:1028100033B330B583B00446134B1B78F3B10138A2
:10282000FEF72EFAC508013500200346014610E0E8
:1028300014F801C0BCFA8CF35B0902F1080EEE44F7
:102840000EF808CC01310132072A01DC002BEFD051
:102850000130A84202DA0BB91A46F5E703B030BDE1
:10286000704700BFC0130020C413002000B583B020
:102870008DED010A054B1B7813B903B05DF804FB1D
:10288000014601A8FFF77AF8F7E700BFC41300205C
:1028900008B50320FEF7EAFD0320FEF7E7FD07EE8B
:1028A000900AF8EE677A9FED0C7AC7EE877A17EEFA
:1028B000900AFDF709FE06A3D3E90023FEF74CFAC0
:1028C000FDF702FF00EE100A08BD00BFAFF3008065
:1028D000C64B378941A0304000F07F4508B50268FB
:1028E000034B9A4200D008BD00F0FAFEFBE700BFA0
:1028F0000044014008B572B60A231A460449054847
:1029000002F01EFE4FF4FA7000F0FCFEF4E700BF88
:1029100058E500087414002000B595B03422002159
:1029200007A807F029FC002302930393049305935F
:10293000069300931A4A116C41F080511164126C95
:1029400002F080520092009A019316490A6822F41C
:10295000404242F480420A600A6802F44042019216
:10296000019A0A22079201220A9210210B910C92DD
:102970000D9307A801F066FF68B90F2302930021A9
:10298000039104910591069102A801F0D3FD20B9AD
:1029900015B05DF804FBFFF7ADFFFFF7ABFF00BF1D
:1029A000003802400070004008B500F07FFEFFF7DD
:1029B000B3FFFFF7DBFCFFF78BFBFFF79DF800F0A1
:1029C00025FC00F09FFBFFF7A3FEFEF783FCFFF75B
:1029D0008BFAFFF7F1FEA0B100F046FAFFF710FF07
:1029E000FFF768FA01210846FFF7F8FA01210748C6
:1029F000FFF70CFF02F018FEFFF726FC02F026FEA0
:102A0000FEE70121FFF7EAFAE6E700BF30EC000835
:102A100010B5FFF753FE48B1044600231A46194685
:102A200004F012FE0121204602F08BFE10BD0000D2
:102A30000B4BB3F900200B4BB3F900301A440A4B8F
:102A4000B3F900301344094A82FB03121A44DB171E
:102A5000C3EB221300EE103AB8EEC00A704700BF75
:102A6000D2130020D0130020CE130020898888883C
:102A7000074BB3F90030074A82FB0312DB17C3EBA5
:102A8000A2031BB200EE103AB8EEC00A704700BFB6
:102A9000CC13002067666666054BB3F9003003EB84
:102AA00083035A0007EE902AB8EEE70A704700BF8A
:102AB000DA130020014B1870704700BFC5130020C7
:102AC0004278037843EA0223074A1380C278837866
:102AD00043EA0223054A13804279037943EA022339
:102AE000034A1380704700BFD2130020D013002088
:102AF000CE1300204279037943EA0223014A13806E
:102B0000704700BFCC13002000B585B014238DF8AA
:102B1000083000238DF8093001228DF80A208DF845
:102B20000B308DF80C308DF80D308DF80E308DF89F
:102B30000F3001930093C12308220DEB02010848D6
:102B4000FFF72EF810B905B05DF804FB002108204E
:102B5000FFF7D8FA00210348FFF758FEF3E700BF5C
:102B6000006400404CEC000838B50446FFF750FF05
:102B70006278237843EA02231D4A1380E278A3781F
:102B800043EA02231B4A13806279237943EA022332
:102B9000194D2B80E279A37943EA02231BB2174A2D
:102BA000138007EE903AB8EEE70A1520F2EE047AA9
:102BB00080EE270AFFF75AFEB5F90000FDF772FC18
:102BC00009A3D3E90023FEF7C7F8FDF77DFD00EE6A
:102BD000100A0320DFED0A7A80EE270AFFF746FE8F
:102BE00038BD00BFAFF30080AE47E17A147E5D4090
:102BF000C8130020C6130020CA130020DC130020D5
:102C000000E0AB4508B54278037843EA02230E4A58
:102C10001380C278837843EA02230C4A13804279F6
:102C2000037943EA02230A4A1380C279837943EA8B
:102C300002231BB2074A13800D2007EE903AB8EE2C
:102C4000E70AFFF713FE08BDD8130020D6130020B3
:102C5000D4130020DA13002000B585B08DF80800E9
:102C600000128DF8090000238DF80A308DF80B3022
:102C7000104A12788DF80C200F4A12788DF80D202A
:102C80008DF80E308DF80F3001930093C023082289
:102C90000DEB02010948FEF783FF10B905B05DF89E
:102CA00004FB00210820FFF72DFA00210448FFF75C
:102CB000ADFDF3E7E4000020C513002000640040F0
:102CC0004CEC000882B0E5238DF8043000238DF829
:102CD000053002B070470000014B01221A707047A6
:102CE000C5130020014B00221A707047C513002045
:102CF00070470000F8B51AB304461546632825D975
:102D0000C1EB440181EAE170A0EBE170FDF7CAFB81
:102D100006460F462046FDF7C5FB4FF03332104BF9
:102D2000FEF71AF802460B4630463946FDF78EFC90
:102D300080B100236B806B88142B0FD90020F8BD65
:102D400008490720FFF7DEF90020F8E76329D7D804
:102D50000120F4E76B8801336B80ECE70120EEE79C
:102D60003333F33FF12C000838B52DED028B0446C8
:102D700008EE101A1546508AFDF794FB38A3D3E9E4
:102D80000023FDF7E9FFFDF77FFC95ED077AF8EEEC
:102D9000C87A67EE877AFCEEE77A17EE903A9BB234
:102DA000B3F5805F00D30023B4F5805F00D3002427
:102DB00084420DD382B2A21A92B2944209D24FF049
:102DC000500383F31188BFF36F8FBFF34F8FFEE77C
:102DD000002214FA80F189B28C4208D94FF05003D6
:102DE00083F31188BFF36F8FBFF34F8FFEE728780F
:102DF000C8B9934204D38B4202D20023EB8002E095
:102E0000EB880133EB80EA886B899A4203D2012078
:102E1000BDEC028B38BD0021298101232B700E48A7
:102E2000FFF7F4FCF3E7934205D38B4203D22B89DF
:102E300001332B8101E000232B812A896B899A427F
:102E4000E5D30021E980298129700448FFF7DEFCE1
:102E5000DDE700BFAFF3008078EC000898EC0008D5
:102E60009A9999999999B93F08B5FFF77DFC08BBE4
:102E7000264B5B6F13F0006F25D1244B5B6F13F073
:102E8000806F2AD1214B5B6F13F0007F2AD11F4B3B
:102E90005B6F13F0805F2AD11C4B5B6F002B2BDB29
:102EA0001A4B5B6F13F0804F2BD000211848FFF7AF
:102EB000ADFC0CE000211748FFF7A8FC0121002021
:102EC000FFF78CF8D4E700211348FFF79FFC0F4A67
:102ED000536F43F08073536708BD00210F48FFF71D
:102EE00095FCF4E700210E48FFF790FCEFE7002186
:102EF0000C48FFF78BFCEAE700210B48FFF786FC44
:102F0000E5E700210948FFF781FCE0E700380240CF
:102F100020ED0008C8EC0008D4EC0008E4EC000840
:102F2000F0EC000800ED000810ED000838ED000896
:102F300000B583B0002200920D4B596C41F48041E2
:102F40005964596C01F48041009100990192196C07
:102F500041F0805119641B6C03F080530193019B75
:102F60000F216FF0010000F0E3FF03B05DF804FBF8
:102F70000038024030B589B00546002401941D4B4D
:102F80005A6C42F400325A645B6C03F400330193D0
:102F9000019B02A903A801F0A3FB01F091FB164AD3
:102FA000A2FB00239B0C013B1448154A026040F22F
:102FB000E732C260436004618460846102F042F8D9
:102FC000044610B1204609B030BD0C4801F0D6FED1
:102FD00004460028F6D1192000F0BAFF0F2D01D9C0
:102FE0000124EFE700222946192000F0A1FF054B3C
:102FF0001D60E7E70038024083DE1B43E01300203A
:1030000000440140F0000020FEE7FEE7FEE7FEE797
:10301000FEE7704708B5024801F0F8FE08BD00BFA2
:10302000E013002008B5024801F066F808BD00BFB3
:10303000CC0700200120704708B507F0C1F916231E
:1030400003604FF0FF3008BD08B54FF0FF31FFF7C8
:10305000F3FFFEE770B50C461646002506E0AFF319
:103060000080214601F8010B01350C46B542F6DB24
:10307000304670BD70B50C461646002504E014F8C5
:10308000010BAFF300800135B542F8DB304670BD6F
:103090004FF0FF3070474FF400534B6000207047F3
:1030A000012070470020704710B503460C4A0D49B7
:1030B0000D48006840B10C4800680344521A93421E
:1030C00006D8094A136010BD0748084C0460F2E7AF
:1030D00007F076F90C2303604FF0FF30F3E700BFF1
:1030E000000002200004000028140020A075002029
:1030F000034AD2F8883043F47003C2F8883070472E
:1031000000ED00E000B58BB0002305930693079314
:103110000893099301930293039304931E481F4A53
:103120000260436083604FF6FF72C2600361836197
:1031300001F0B4FF20BB0423059350230693002322
:1031400007930893099305A9134802F0DCF8D0B956
:1031500000220192012302930392049201A90E48D6
:1031600002F006F890B902230193029304220DEBBA
:103170000201094801F0FCFF58B90BB05DF804FBEF
:10318000FFF7B8FBD7E7FFF7B5FBE1E7FFF7B2FBC7
:10319000E9E7FFF7AFFBF0E72C1400200018004030
:1031A00000B589B000230393049305930693079316
:1031B0000268144B9A4202D009B05DF804FB00216A
:1031C000019103F508331A6C42F040021A641A6C3C
:1031D00002F040020192019A02911A6B42F002023F
:1031E0001A631B6B03F002030293029B4FF48043AC
:1031F0000393022304930923079303A9024801F0D0
:1032000069F8D9E7001800400004024008B50B48EF
:103210000B4B03604FF4E133436000238360C360D2
:1032200003610C2242618361C361036202F060F9B1
:1032300000B908BDFFF75EFBFBE700BF7414002078
:103240000044004000B589B0002303930493059324
:10325000069307930268154B9A4202D009B05DF8B5
:1032600004FB0021019103F5FA331A6C42F4003299
:103270001A641A6C02F400320192019A02911A6BDC
:1032800042F001021A631B6B03F001030293029BDD
:103290001C2303930223049303230693072307931A
:1032A00003A9034801F016F8D8E700BF0044004026
:1032B0000000024008B54021034801F0FBF8012856
:1032C00000D0002008BD00BF000C024008B5FEF78A
:1032D000F1FDFFF707FD0020FFF7ECFB0020FEF7F4
:1032E000DBFD0020FDF7CEFF08BD08B5FFF7EEFFC0
:1032F000FEF754FEFEF732FE4FF47A7003F08EFEB6
:10330000FEF7D8FDFFF7EEFC08BD08B501F0D2F8D6
:10331000B0FA80F0400908BD10B58CB04FF4FA70D7
:1033200003F07CFE5BE00B9A8A4901A806F06EFD73
:10333000002101A8FFF76AFA64E0FFF747F90228C5
:1033400075D10120FEF7A8FD0120FDF79BFFFFF7D7
:10335000C9FCFFF7B7FC42F228330BAA002108464C
:1033600004F020F90B9B012B0FD0FFF7AFFF0B9B55
:10337000042B06D101217848FFF748FAFFF7B5FF83
:103380002AE00020FDF77EFFF4E7FEF7D7FD0021DD
:103390007248FFF73BFA1FE0FFF7A7FF1CE002218E
:1033A0006F48FFF7B2FF002848D101216C48FFF7B2
:1033B000ACFF00230BAA1946184604F0F3F80128C5
:1033C0007ED0FFF7FDF8022800F0858001216548D6
:1033D000FFF71CFAFFF77AFF642003F01FFE0220BC
:1033E000FFF7ACF9FEF760FD0128D8D0022878D0AD
:1033F0000028F1D100230BAA1946184604F0D2F890
:10340000012890D0FFF756FF0220FEF709FE0121A8
:103410005348FFF77AFF0028DED0FEF77FFDFEF766
:10342000A3F80028B8D0FFF7CBF8022885D00021F8
:103430004D48FFF7EBF9FFF758FFCDE7FFF7C0F86E
:10344000022802D0FFF751FFAFE7FFF7BFF80228CD
:10345000F8D1FEF7B3FDFEF787F80028A5D0FEF7F8
:10346000ADFD0220FEF718FD0220FDF70BFF4FF423
:10347000FA530BAA0021084604F094F80446FFF71B
:103480002BFC012C02D10B9B032B0FD000213748C2
:10349000FFF7BCF9FFF71AFF0B9B042B02D1FFF7D4
:1034A00024FF82E70020FDF7EDFEF8E7FEF766FD5A
:1034B0000120FFF7FFFA00212D48FFF7A7F974E775
:1034C0000B9B042B7FF47DAF01212A48FFF79EF967
:1034D000FFF7FCFE75E7FFF779F802287FF476AF77
:1034E0007AE7FFF7F9FB02211D48FFF70EFF38B915
:1034F000012100F1804000F50130FFF706FF30B1F7
:103500000020FDF7BFFE00211B48FFF77FF90023D5
:103510000BAA1946184604F045F801280AD0FFF70F
:103520004FF8022810D001210E48FFF76FF9FFF77E
:10353000CDFE51E70B9B042BF1D101210D48FFF784
:1035400065F9FFF7C3FEEAE7FFF740F80228EAD182
:1035500042E700BF6CED0008B8ED0008D8ED0008A8
:103560000004024030EE00088CED0008E4ED000895
:1035700004EE000810EE000850EE0008DFF834D02A
:10358000FFF7B6FD0C480D490D4A002302E0D45860
:10359000C4500433C4188C42F9D30A4A0A4C00239D
:1035A00001E013600432A242FBD306F00FFFFFF7E5
:1035B000FBF970470000022000000020AC0700204B
:1035C000BCF20008B0070020A0750020FEE708B597
:1035D00010B10246002307E072B6FFF78BF9FEE751
:1035E000002142F823100133012BF9D90023137273
:1035F00008BD08B590B10346027A012A12D8511CC1
:103600000172EFF311814FF0500080F31188BFF386
:103610006F8FBFF34F8F43F8221008BD72B6FFF7CC
:1036200069F9FEE772B6FFF765F9FEE708B550B134
:10363000037A013BDBB20372012B08D850F8233028
:1036400083F3118808BD72B6FFF754F9FEE772B62E
:10365000FFF750F9FEE710B540B104460C2004F026
:10366000D1FC206038B1FFF7B2FF10BD06F0A8FE14
:1036700016230360F9E772B6FFF73CF9FEE708B5D9
:1036800004F0C8FC08BD08B510B1FFF7B2FF08BDD3
:1036900072B6FFF72FF9FEE708B510B1FFF7C6FFC6
:1036A00008BD72B6FFF726F9FEE7000008B50B4B20
:1036B0001A6842F400721A601A6842F480621A6052
:1036C0001A6842F480721A60032000F01FFC0F2079
:1036D000FFF750FCFFF72CFC002008BD003C024027
:1036E000034A1168034B1B780B441360704700BFFB
:1036F000DC140020EC000020014B1868704700BF6C
:10370000DC14002038B50446FFF7F6FF0546B4F197
:10371000FF3F02D0044B1B781C44FFF7EDFF401B1A
:10372000A042FAD338BD00BFEC0000204A4B5A68D3
:1037300022F440325A605A6841680A435A6002686B
:10374000536823F48073536002685368016943EA45
:10375000012353600268536823F04073536002688A
:10376000536881680B4353600268936823F40063D5
:10377000936002689368C1680B439360826A374B19
:103780009A4257D00268936823F07063936002688E
:103790009368816A0B4393600268936823F04053F7
:1037A000936002689368C16A0B43936002689368F0
:1037B00023F00203936002689368017E43EA4103A9
:1037C000936090F82030002B3FD00268536843F498
:1037D000006353600268536823F4604353600168D8
:1037E0004B68426A013A43EA42334B600268D36A4B
:1037F00023F47003D3620168CB6AC269013A43EAD9
:103800000253CB620268936823F4007393600268EA
:10381000936890F8301043EA4123936002689368FC
:1038200023F48063936002689368416943EA8123CB
:10383000936070470268936823F070639360026836
:10384000936823F040539360B0E70268536823F411
:1038500000635360CAE700BF002301400100000F6E
:1038600038B310B50446036C43B1236C13F0100F4A
:103870000BD00120002384F83C3010BDFDF786FDFD
:103880000023636484F83C30EFE7236C23F488530F
:1038900023F0020343F0020323642046FFF746FFB0
:1038A00000206064236C23F0030343F001032364CE
:1038B000E0E701207047000030B482B0002201929E
:1038C00090F83C20012A00F0C0800346012280F8D5
:1038D0003C200A68092A40D90468E06892B202EBE9
:1038E00042021E3A4FF0070C0CFA02F220EA0202E2
:1038F000E2601C68E0680A8802EB42021E3A8D68AA
:1039000005FA02F20243E2604A68062A3CD81C68C3
:10391000606B02EB8202053A4FF01F0C0CFA02F2C8
:1039200020EA020262631C68606B4A6802EB820252
:10393000053AB1F800C00CFA02F20243626318685B
:10394000434A904250D01868414A904259D00020D2
:1039500083F83C0002B030BC70470468206992B222
:1039600002EB42024FF0070C0CFA02F220EA0202CC
:1039700022611C6820690A8802EB42028D6805FA00
:1039800002F202432261BFE70C2A16D81D68286B99
:1039900002EB8202233A1F2404FA02F220EA020216
:1039A0002A631D68286B4A6802EB8202233A0C885E
:1039B00004FA02F202432A63C1E71D68E86A02EBD7
:1039C0008202413A1F2404FA02F220EA0202EA6269
:1039D0001D68E86A4A6802EB8202413A0C8804FAE0
:1039E00002F20243EA62AAE70A68122AABD1194A34
:1039F000506820F400005060506840F4800050602F
:103A0000A1E70A681448824201D0112A9FD1114AC5
:103A1000506820F480005060506840F4000050600E
:103A200009680D4A914292D10C4A12680C49A1FBD7
:103A30000212920C02EB820252000192019A002AB9
:103A400085D0019A013A0192F8E7022082E700BF8F
:103A5000002001400023014012000010E800002077
:103A600083DE1B43002800F0A18038B5044690F89F
:103A70002030D3B12268136843F001031360FFF7CD
:103A80003BFE054623685A6812F0010F10D1FFF77C
:103A900033FE401B0A28F5D9636A43F4003363629E
:103AA000052384F82030012038BDFEF741F8E1E716
:103AB0001A6822F002021A60FFF71EFE054623680C
:103AC0005A6812F0020F0DD0FFF716FE401B0A28AD
:103AD000F5D9636A43F400336362052384F8203028
:103AE0000120E1E7227E012A3DD01A6822F08002FF
:103AF0001A60637E012B3BD02268136823F04003D9
:103B00001360A37E012B39D02268136823F02003B1
:103B10001360E37E012B37D02268136843F0100353
:103B20001360237F012B35D02268136823F008032C
:103B30001360637F012B33D02268136823F00403E2
:103B40001360A368E2681343226913436269134355
:103B50006268013A21681343CB610020606201234F
:103B600084F82030A0E71A6842F080021A60C0E7AB
:103B70002268136843F040031360C2E722681368A9
:103B800043F020031360C4E72268136823F0100396
:103B90001360C6E72268136843F008031360C8E7A0
:103BA0002268136843F004031360CAE701207047DA
:103BB00070B5044690F82050EDB2012D06D0436A4E
:103BC00043F4002343620125284670BD022380F898
:103BD00020300268136823F001031360FFF78CFDA7
:103BE000064623685B6813F0010F0CD0FFF784FDD5
:103BF000831B0A2BF5D9636A43F400336362052300
:103C000084F82030E0E700256562DDE730B590F804
:103C100020C00468A4680CF1FF3C5FFA8CFCBCF186
:103C2000010F62D814F0E05F59D0C4F3016C012495
:103C300004FA0CF41C608B68002B3DD10D68CB6836
:103C4000046843EA45550CF118031B01E55003686D
:103C50000C690CF1180E03EB0E135C600B7D012B4D
:103C600035D0D17993791B0443EA0163517943EA52
:103C7000012314790168234301EB0C11C1F88C3145
:103C8000D17893781B0443EA0163517843EA012316
:103C9000117802680B4302EB0C12C2F888310268FB
:103CA0000CF1180C4FEA0C1C52F80C3043F00103D5
:103CB00042F80C3000201DE04C6843EAC403CC6895
:103CC00023430CF11804240105682B51BFE7036856
:103CD00003EB0E13596841F480715960C1E7436AE0
:103CE00043F400134362012004E0436A43F4802359
:103CF0004362012030BD90F820C00CF1FF3C5FFA18
:103D00008CFCBCF1010F00F2A58030B451B90468FD
:103D1000E46814F0030F10D1436A43F400134362C4
:103D200001207EE00468246914F0030F05D1436A82
:103D300043F400134362012073E0056801F11B04A2
:103D400024012C5904F004049460002C6BD1056804
:103D500001F11B0424012C59640D1460046801F165
:103D60001B0C4FEA0C1C54F80C4004F00204D46005
:103D70000468A444DCF8045015F0080F5BD0082454
:103D80001461046801F11B0C04EB0C146468C4F3A7
:103D900007249461046804EB0C146468240C5461D7
:103DA000026802EB0112D2F8B8211A70026802EB25
:103DB0000112D2F8B821C2F307225A70026802EB4E
:103DC0000112D2F8B821C2F307429A70026802EBDE
:103DD0000112D2F8B821120EDA70026802EB011259
:103DE000D2F8BC211A71026802EB0112D2F8BC2190
:103DF000C2F307225A71026802EB0112D2F8BC2109
:103E0000C2F307429A71026802EB0112D2F8BC2198
:103E1000120EDA71C1B90268D36843F02003D3608F
:103E2000002030BC7047056801F11B0424012C59A7
:103E3000E408546092E701F11B0504EB0514646883
:103E400004F00F0414619CE70268136943F0200337
:103E50001361E5E7436A43F480234362012070471E
:103E600090F82030013BDBB2012B01D900207047D4
:103E700021B90368D86800F0030070470368186927
:103E800000F0030070470000002807DB00F01F026D
:103E9000400901239340024A42F82030704700BF96
:103EA00000E100E0002808DB0901C9B200F1604030
:103EB00000F5614080F80013704700F00F00090121
:103EC000C9B2014B1954704714ED00E000B500F081
:103ED0000700C0F1070CBCF1040F28BF4FF0040C21
:103EE000031D062B0FD9C31E4FF0FF3E0EFA0CF038
:103EF00021EA000199400EFA03FE22EA0E0241EA8D
:103F000002005DF804FB0023EEE70000074AD368D7
:103F100023F4E0631B041B0C000200F4E060034385
:103F200043F0BF6343F40033D360704700ED00E01B
:103F300010B50446054BD868C0F30220FFF7C6FF52
:103F400001462046FFF7AEFF10BD00BF00ED00E0C8
:103F500008B5FFF799FF08BD10B40368D9B210394E
:103F60000C4AA2FB014212090B4CA25CC2655F29FC
:103F700009D923F47F7323F0030304338365806D31
:103F80005DF8044B704723F47F7323F003038365CC
:103F9000F5E700BFABAAAAAA78EE0008836A826997
:103FA00092B9012B0AD0022B02D00BB1002070472E
:103FB000C36A13F0807F28D100207047C36AB3F131
:103FC000C07F24D000207047B2F5005F09D0022BDB
:103FD00025D9032B25D1C36A13F0807F23D100207C
:103FE0007047032B03D8DFE803F01404140A002001
:103FF0007047C36A13F0807F0DD100207047C36AF9
:10400000B3F1C07F09D00020704701207047012024
:104010007047012070470120704701207047012040
:1040200070470020704701207047000070B50446BB
:10403000FFF762FB002C5BD00546022384F8353085
:10404000002384F834302268136823F001031360DE
:1040500023681A6812F0010F0AD0FFF74DFB431BCB
:10406000052BF5D920236365032084F8350070BD46
:104070001A68204911406268A0680243E068024360
:104080002069024360690243A0690243E069024378
:10409000206A02430A43616A04291ED01A60266816
:1040A000756925F00705636A1D43042B07D1A36AD0
:1040B0001D43E36A1BB12046FFF770FF90B975619D
:1040C0002046FFF749FFE26D3F23934083600020C5
:1040D0006065012384F83530C9E7E16A206B01434C
:1040E0000A43DBE740236365012084F83500BEE71F
:1040F0000120BCE73F8010F0F0B583B004460023F8
:104100000193724B1D68724BA3FB0535AD0A876D99
:104110003E68C26D08239340334210D003681A688A
:1041200012F0040F0BD01A6822F004021A60C26D5C
:1041300008239340BB60436D43F001034365E26D88
:1041400001239340334209D02268526912F0800F54
:1041500004D0BB60636D43F002036365E26D04232A
:104160009340334209D02268126812F0020F04D043
:10417000BB60636D43F004036365E26D10239340FD
:10418000334224D02268126812F0080F1FD0BB609F
:1041900023681A6812F4802F0DD01B6813F4002FC7
:1041A00004D1236C9BB12046984710E0A36C73B1F7
:1041B000204698470BE01A6812F4807F03D11A68F2
:1041C00022F008021A60236C0BB120469847E26D7A
:1041D00020239340334255D02268126812F0100F0A
:1041E00050D0BB6094F83530DBB2052B0ED023687D
:1041F0001A6812F4802F33D01B6813F4002F2AD1D1
:10420000636C002B3ED0204698473BE02268136841
:1042100023F0160313602268536923F0800353616F
:10422000236CA3B12268136823F008031360E26DC6
:104230003F239340BB60012384F83530002384F88A
:104240003430236D002B3FD0204698473CE0A36CD0
:10425000002BE7D1EBE7E36BA3B12046984711E0D1
:104260001A6812F4807F09D11A6822F010021A60CD
:10427000012384F83530002384F83430E36B0BB12C
:1042800020469847636DFBB1636D13F0010F17D0A3
:10429000052384F835302268136823F00103136086
:1042A000019B01330193AB4204D823681B6813F0D0
:1042B000010FF5D1012384F83530002384F8343020
:1042C000E36C0BB12046984703B0F0BDE800002036
:1042D000B5814E1B00230F2B00F2E38070B582B036
:1042E00065E085684FEA430E032404FA0EF425EADC
:1042F0000405CC6804FA0EF42C438460446824EA74
:1043000002044A68C2F300129A40224342605CE011
:10431000DC08083450F8242003F00705AD004FF006
:104320000F0E0EFA05FE22EA0E0E0A69AA4042EAB4
:104330000E0240F824205CE0062200E0002202FA8F
:104340000EF22A430234574D45F82420564A946809
:104350006FEA0C0224EA0C054E6816F4801F01D0A7
:104360004CEA0405504CA560E46802EA04054E6876
:1043700016F4001F01D04CEA04054B4CE56064685C
:1043800002EA04054E6816F4003F01D04CEA040529
:10439000454C6560246822404D6815F4803F01D08B
:1043A0004CEA0402404C226001330F2B77D80122E3
:1043B0009A400C6804EA020C32EA0404F4D14C6816
:1043C00004F00304013C012C8BD94A6802F003027B
:1043D000032A09D0C4685D000322AA4024EA02042B
:1043E0008A68AA402243C2604A6802F00302022A95
:1043F0008ED004684FEA430E032202FA0EF224EA3A
:1044000002044A6802F0030202FA0EF2224302603A
:104410004A6812F4403FC7D000220192234A546CEC
:1044200044F480445464526C02F480420192019A34
:104430009C08A51C1B4A52F8255003F0030E4FEAB6
:104440008E0E0F2202FA0EF225EA0205184A904259
:104450003FF474AF02F58062904216D002F580629C
:10446000904214D002F58062904212D002F5806230
:10447000904210D002F5806290420ED002F5806228
:1044800090423FF459AF072259E7012257E7022231
:1044900055E7032253E7042251E705224FE702B014
:1044A00070BD704700380140003C014000380240B8
:1044B000000002400369194201D00120704700202A
:1044C00070470AB18161704709048161704740B348
:1044D00038B5044603684CF6CC421A60036845F2CE
:1044E00055521A60036842685A60036882689A608D
:1044F000FFF702F905462368DA6812F0030F0BD0C4
:10450000FFF7FAF8401B3128F5D92368DB6813F070
:10451000030FF0D0032003E04AF6AA221A6000201D
:1045200038BD0120704703684AF6AA221A600020AD
:1045300070470000002800F09B8070B50D460446CF
:104540004F4B1B6803F00F038B4208D2CBB24C4A8F
:104550001370136803F00F038B4240F08B802368C5
:1045600013F0020F17D013F0040F04D0454A9368DC
:1045700043F4E0539360236813F0080F04D0414ADA
:10458000936843F4604393603E4A936823F0F003DA
:10459000A1680B439360236813F0010F32D0636866
:1045A000012B21D09A1E012A25D9364A126812F011
:1045B000020F61D033498A6822F0030213438B60F3
:1045C000FFF79AF806462F4B9B6803F00C036268CE
:1045D000B3EB820F16D0FFF78FF8801B41F28833C0
:1045E0009842F0D9032042E0264A126812F4003FB4
:1045F000E0D101203BE0234A126812F0007FD9D1BC
:10460000012034E01E4B1B6803F00F03AB4207D9B7
:10461000EAB21B4B1A701B6803F00F03AB422DD19B
:10462000236813F0040F06D0164A936823F4E0536E
:10463000E1680B439360236813F0080F07D0114A19
:10464000936823F46043216943EAC103936000F057
:1046500065F80C4B9B68C3F303130B4AD35CD8403B
:104660000A4B18600A4B1868FEF784FC002070BDE6
:10467000012070470120FAE70120F8E70120F6E762
:10468000003C0240003802405CED0008E8000020D9
:10469000F0000020014B1868704700BFE8000020C0
:1046A00008B5FFF7F7FF044B9B68C3F38223034A67
:1046B000D35CD84008BD00BF0038024054ED00086C
:1046C00008B5FFF7E7FF044B9B68C3F34233034A87
:1046D000D35CD84008BD00BF0038024054ED00084C
:1046E0000F2303600B4B9A6802F0030242609A6842
:1046F00002F0F00282609A6802F4E052C2609B68A5
:10470000DB0803F4E0530361034B1B6803F00F0362
:104710000B60704700380240003C024008B5464B31
:104720009B6803F00C03082B07D00C2B45D0042BFF
:1047300001D0424808BD4248FCE73F4B5A6802F0AE
:104740003F025B6813F4800F12D03B4B5968C1F3F2
:1047500088113B480023A1FB0001FCF705F8364B0C
:104760005B68C3F3014301335B00B0FBF3F0E1E7A7
:10477000314B5868C0F388104FEA401CBCEB000C6A
:104780006EEB0E0E4FEA8E1343EA9C634FEA8C11D8
:10479000B1EB0C0163EB0E03DB0043EA5173C9007C
:1047A00011EB000C43F10003990200234FEA8C2027
:1047B00041EA9C51FBF7D8FFD1E71F4B5A6802F042
:1047C0003F025B6813F4800F10D01B4B5968C1F394
:1047D00088111B480023A1FB0001FBF7C5FF164B06
:1047E0005B68C3F30273B0FBF3F0A3E7124B5868A6
:1047F000C0F388104FEA401CBCEB000C6EEB0E0EB1
:104800004FEA8E1343EA9C634FEA8C11B1EB0C0123
:1048100063EB0E03DB0043EA5173C90011EB000C9C
:1048200043F10003990200234FEA8C2041EA9C5196
:10483000FBF79AFFD3E700BF003802400024F400E2
:1048400040787D01002800F0018270B582B00446F6
:10485000036813F0010F41D0994B9B6803F00C03E0
:10486000042B32D0964B9B6803F00C03082B27D007
:10487000934B9B6803F00C030C2B59D06368B3F582
:10488000803F5BD0B3F5A02F5ED08D4B1A6822F429
:1048900080321A601A6822F480221A606368002B42
:1048A0005CD0FEF729FF0546854B1B6813F4003FDB
:1048B00014D1FEF721FF401B6428F5D90320CCE179
:1048C0007F4B5B6813F4800FD2D07D4B1B6813F4D1
:1048D000003F03D06368002B00F0BA81236813F017
:1048E000020F60D0764B9B6813F00C0F4AD0744BCC
:1048F0009B6803F00C03082B3FD0714B9B6803F0BF
:104900000C030C2B69D0E368002B75D06D4B012292
:104910001A60FEF7F1FE0546694B1B6813F0020FA3
:1049200061D1FEF7E9FE401B0228F5D9032094E18E
:10493000634B5B6813F4800FA0D0C6E7604A13682E
:1049400043F480331360A9E75D4B1A6842F4802278
:104950001A601A6842F480321A609FE7FEF7CCFEB4
:104960000546574B1B6813F4003FB7D0FEF7C4FE53
:10497000401B6428F5D903206FE1514B5B6813F4A9
:10498000800FBAD14E4B1B6813F0020F03D0E368BF
:10499000012B40F05F814A4A136823F0F803216934
:1049A00043EAC1031360236813F0080F49D0636919
:1049B000002B33D0434B0122C3F8802EFEF79CFE20
:1049C00005463F4B5B6F13F0020F3AD1FEF794FEA2
:1049D000401B0228F5D903203FE1394B5B6813F4F3
:1049E000800F90D1CEE7364A136823F0F80321698F
:1049F00043EAC1031360D6E7324B00221A60FEF788
:104A00007BFE05462E4B1B6813F0020FCBD0FEF742
:104A100073FE401B0228F5D903201EE1294B00221A
:104A2000C3F8802EFEF768FE0546254B5B6F13F03A
:104A3000020F06D0FEF760FE401B0228F5D90320C6
:104A40000BE1236813F0040F76D01D4B1B6C13F0A1
:104A5000805F33D100230193194B1A6C42F08052CE
:104A60001A641B6C03F080530193019B0125164BC4
:104A70001B6813F4807F29D0A368012B3AD0052B43
:104A80003ED00F4B1A6F22F001021A671A6F22F004
:104A900004021A67A368002B3CD0FEF72DFE0646E1
:104AA000074B1B6F13F0020F45D1FEF725FE801B4D
:104AB00041F288339842F3D90320CEE00025D6E7AF
:104AC0000038024000004742007000406B4A136803
:104AD00043F480731360FEF70FFE0646674B1B68B6
:104AE00013F4807FC8D1FEF707FE801B0228F5D99A
:104AF0000320B2E0624A136F43F001031367C9E772
:104B00005F4B1A6F42F004021A671A6F42F00102FB
:104B10001A67BFE7FEF7F0FD0646594B1B6F13F00F
:104B2000020F08D0FEF7E8FD801B41F2883398425F
:104B3000F3D9032091E0EDB9A369002B00F08C803C
:104B40004F4A926802F00C02082A54D0022B17D068
:104B50004C4B00221A66FEF7CFFD0446484B1B68FB
:104B600013F0007F45D0FEF7C7FD001B0228F5D9E2
:104B7000032072E0424A136C23F080531364DBE796
:104B8000404B00221A66FEF7B7FD05463C4B1B68FA
:104B900013F0007F06D0FEF7AFFD401B0228F5D9C9
:104BA00003205AE0E369226A1343626A43EA8213EC
:104BB000A26A5208013A43EA0243E26A43EA026304
:104BC000226B43EA02732E4A53602E4B01221A666F
:104BD000FEF792FD04462A4B1B6813F0007F06D1B6
:104BE000FEF78AFD001B0228F5D9032035E00020DE
:104BF00033E0002031E0012B31D0214B5B6803F41E
:104C00008001E26991422CD103F03F02216A8A427D
:104C100029D1616A47F6C0721A40B2EB811F24D1D4
:104C200003F44031A26A5208013AB1EB024F1ED19F
:104C300003F07062E16AB2EB016F1AD103F0E04356
:104C4000226BB3EB027F16D1002006E001207047F3
:104C5000012002E0012000E0002002B070BD012030
:104C6000FBE70120F9E70120F7E70120F5E7012044
:104C7000F3E70120F1E70120EFE700BF00700040FB
:104C8000003802400000474210B4036A046A24F06E
:104C900001040462846924F0F00C4CEA021223F04F
:104CA0000A030B43826103625DF8044B704730B422
:104CB000056A046A24F010040462846924F4407CC8
:104CC0004CEA022C2CF4704C1B039BB243EA0C03FD
:104CD00025F0A005090101F0A001294383610162CB
:104CE00030BC704710B4036A046A24F010040462F4
:104CF000846924F4704C4CEA023223F0A00343EAA6
:104D00000113826103625DF8044B704730B4056A99
:104D1000046A24F480740462C46924F0030C4CEA2D
:104D2000020C2CF0F00C1B01DBB243EA0C0325F45F
:104D30002065090201F420612943C361016230BC8E
:104D4000704730B4056A046A24F480540462C4696C
:104D500024F4407C4CEA022C2CF4704C1B039BB2D4
:104D600043EA0C0325F42045090301F420412943BB
:104D7000C361016230BC70477047000090F83D305D
:104D8000DBB2012B37D1022380F83D300268D368B3
:104D900043F00103D3600368194A934220D0B3F172
:104DA000804F1DD0A2F57C42934219D002F580625B
:104DB000934215D002F58062934211D002F57842F9
:104DC00093420DD002F57052934209D0A2F594326D
:104DD000934205D01A6842F001021A600020704721
:104DE0009A6802F00702062A07D01A6842F0010208
:104DF0001A6000207047012070470020704700BFF4
:104E000000000140704770477047704770B5044616
:104E10000368DE681D6915F0020F10D016F0020F4E
:104E20000DD06FF002021A610123037703689B69BA
:104E300013F0030F5ED0FFF7E6FF0023237715F092
:104E4000040F12D016F0040F0FD023686FF0040285
:104E50001A610223237723689B6913F4407F4FD0A4
:104E60002046FFF7D0FF0023237715F0080F12D05C
:104E700016F0080F0FD023686FF008021A610423A0
:104E800023772368DB6913F0030F40D02046FFF738
:104E9000BAFF0023237715F0100F12D016F0100F71
:104EA0000FD023686FF010021A610823237723685C
:104EB000DB6913F4407F31D02046FFF7A4FF0023C5
:104EC000237715F0010F02D016F0010F2DD115F048
:104ED000800F02D016F0800F2FD115F0400F02D0B6
:104EE00016F0400F31D115F0200F02D016F0200F30
:104EF00033D170BDFFF786FF2046FFF785FF9CE7A3
:104F00002046FFF77FFF2046FFF77EFFABE72046F6
:104F1000FFF778FF2046FFF777FFBAE72046FFF755
:104F200071FF2046FFF770FFC9E723686FF00102A9
:104F30001A612046FDF7D2FCC9E723686FF08002B2
:104F40001A61204600F009FAC7E723686FF04002B3
:104F50001A612046FFF759FFC5E723686FF020026A
:104F60001A61204600F0F8F9C3E700000368344AEC
:104F7000904212D0B0F1804F0FD0A2F57C42904207
:104F80000BD002F58062904207D002F58062904219
:104F900003D002F57842904203D123F070034A68AF
:104FA0001343274A90422AD0B0F1804F27D0A2F570
:104FB0007C42904223D002F5806290421FD002F5DD
:104FC000806290421BD002F57842904217D002F5E1
:104FD0007052904213D002F5806290420FD002F5D9
:104FE000806290420BD0A2F59832904207D002F531
:104FF0008062904203D002F58062904203D123F494
:105000004073CA68134323F080034A691343036063
:105010008B68C3620B688362094B984203D003F527
:105020008063984201D10B690363012343610369E3
:1050300013F0010F03D0036923F0010303617047EC
:105040000000014040B310B5044690F83D30F3B184
:10505000022384F83D30214651F8040BFFF786FF08
:10506000012384F8463084F83E3084F83F3084F8D9
:10507000403084F8413084F8423084F8433084F87A
:10508000443084F8453084F83D30002010BD80F86D
:105090003C30FFF771FEDBE70120704740B310B5ED
:1050A000044690F83D30F3B1022384F83D302146A8
:1050B00051F8040BFFF75AFF012384F8463084F8B7
:1050C0003E3084F83F3084F8403084F8413084F832
:1050D000423084F8433084F8443084F8453084F812
:1050E0003D30002010BD80F83C30FEF759F8DBE77A
:1050F0000120704770B49446066A046A24F00104E3
:1051000004628469184DA8421CD0B0F1804F19D0B8
:10511000164A904216D002F58062904212D002F5F3
:10512000806290420ED002F5784290420AD002F599
:105130007052904206D0A2F59432904202D044F0D0
:10514000010203E024F0030242EA0C0222F0F00222
:105150001B01DBB2134326F00A0201F00A011143DE
:105160008361016270BC7047000001400004004090
:1051700038B590F83C30012B5AD004460D46012337
:1051800080F83C3052B1042A1AD0082A2BD00C2ABD
:105190003BD00120002384F83C3038BDCB684A68FE
:1051A00009680068FFF7A6FF2268936923F00C03E3
:1051B000936122689369A9680B4393610020E9E732
:1051C000CB684A6809680068FFF771FD2268936937
:1051D00023F44063936122689369A96843EA012339
:1051E00093610020D6E7CB684A6809680068FFF73A
:1051F0008DFD2268D36923F00C03D3612268D36943
:10520000A9680B43D3610020C4E7CB684A680968EA
:105210000068FFF796FD2268D36923F44063D361E9
:105220002268D369A96843EA0123D3610020B1E76A
:105230000220B2E710B4846824F47F4C42EA0322CF
:105240000A4342EA0C0282605DF8044B704710B5D5
:105250000468A26822F070024B68134323F007032E
:105260000A681A43A2604B68502B32D00BD9602BCE
:1052700036D0702B43D10B698A68C9680068FFF784
:10528000D9FF00200FE0402B0ED001D901200AE009
:10529000202B2CD003D9302B2FD1002003E043B397
:1052A000102B28D1002010BD0B68052B29D00368D6
:1052B0001C6A1A6A22F001021A620268936923F0DA
:1052C000F003096943EA0113936103681C6200203B
:1052D000E9E70A6989680068FFF7D6FC0020E2E781
:1052E0000A6989680068FFF7FDFC0020DBE7002001
:1052F000D9E70020D7E70120D5E70120D3E7012037
:10530000D1E70120CFE790F83C30012B22D010B537
:105310000446012380F83C30022380F83D30FFF73B
:1053200096FF80B92268D36823F04003D3602268D7
:10533000D36823F48043D360012384F83D300023F5
:1053400084F83C3010BD012084F83D00002384F82F
:105350003C30F7E7022070477047704710B50446AD
:105360000268D36823F00C03D36001680A6922F451
:105370007C528369C0690343206A0343E0680343A6
:10538000134343F400630B612168CA6822F4164298
:1053900022F00C02A36820690343606903431343AE
:1053A00043F40043CB602268536923F44073536194
:1053B00023682F4A93422FD002F5806293422BD06C
:1053C000FFF76EF90023021843EB0301121841F1B5
:1053D0000001C90041EA5271D200101841F10001E8
:1053E000626892185B41FBF7BFF9224AA2FB0031C9
:1053F0004909642303FB1103DB003233A2FB0323BF
:105400005B095A0002F4F87202EB011203F0070381
:10541000216813448B602AE0FFF752F90023021839
:1054200043EB0301121841F10001C90041EA527136
:10543000D200101841F10001626892185B41FBF73D
:1054400093F90C4AA2FB00314909642303FB1103C1
:10545000DB003233A2FB03235B095A0002F4F8722B
:1054600002EB011203F00703216813448B6010BDA7
:10547000001001401F85EB512DE9F84305460F460A
:1054800016469946DDF820802B681C6837EA04042C
:105490000CBF01240024B44227D1B8F1FF3FF3D060
:1054A000B8F1000F05D0FEF727F9A0EB0900404541
:1054B000EAD92A68D36823F08003D3602A68D368C6
:1054C00023F02003D3602A68D36823F48073D36069
:1054D0002A68536923F001035361012385F83D30A5
:1054E000002385F83C30032000E00020BDE8F8836D
:1054F00020B310B5044690F83D30D3B1022384F8B0
:105500003D302046FFF72AFF2268136923F48043C9
:1055100013612268536923F02A0353612268D36818
:1055200043F40053D36000202064012384F83D300D
:1055300010BD80F83C30FDF785FEDFE701207047A5
:105540002DE9F04182B0044690F83D00C0B2012838
:1055500054D10D4690461E46002950D0002A4ED008
:1055600094F83C30012B4DD0012384F83C300023CB
:105570002364122384F83D30FEF7BEF80746A4F8F2
:105580002880A4F82A80A368B3F5805F02D04FF08A
:1055900000080FE02369FBB14FF000080AE038F87B
:1055A000023B2268C3F308035360628D92B2013A52
:1055B00092B26285638D9BB28BB100963B4600220E
:1055C00080212046FFF758FFF0B9002DE7D015F8ED
:1055D000012B23685A60E8E7A8460025EAE7009611
:1055E0003B46002240212046FFF746FF70B90123C9
:1055F00084F83D30002384F83C3000E0022002B003
:10560000BDE8F0810220FAE70320F8E70320F6E77F
:1056100008B54FF0E0231B6901F0B6FE012800D168
:1056200008BD00F0EFFAFBE7EFF305832BB9064B5B
:10563000186828B901221A6070476FF0050070479A
:105640004FF0FF30704700BFE01D0020EFF30583EF
:1056500073B90A4B1B68012B0DD110B50024084B00
:10566000DC77064B02221A6001F06CFB204610BD6D
:105670006FF0050070474FF0FF307047E01D0020CD
:1056800000ED00E0F0B587B000240594EFF3058449
:105690007CBB70B32AB31568936903B918235C1EE9
:1056A000372C4AD8546814F0010F48D1566976B1A6
:1056B0004FEA960C946834B1D768B7F5C07F02D32F
:1056C000176907B1C6B92CB14FF0FF340EE04FF0A7
:1056D000800CEFE7D4688CB9146994B14FF0FF34B3
:1056E00004E01546002418234FF0800C012C0AD04A
:1056F000ACB1059807B0F0BD0124F7E74FF0FF34D7
:10570000F4E70024F2E7146992680292019400938E
:105710000B466246294601F0A5FA0590E9E705AA7D
:10572000019200930B461FFA8CF2294601F0D7FA3A
:105730000128DED000230593DBE70020DAE7002014
:10574000D8E730B585B020B30446002921DB4FF0FF
:10575000FF330393EFF305830BB30025029502ABF0
:1057600000932B46012201F0F3FF009503AB2A467C
:105770002946204601F0ECFF029B6BB14FF0E0237D
:105780004FF08052C3F8042DBFF34F8FBFF36F8FDC
:1057900002E06FF003030393039805B030BD0023CC
:1057A000012201F051FF03AB00221146204601F017
:1057B0004BFFF1E708B5EFF3058333B908B90020D3
:1057C00008BD01F02BFC0020FAE76FF00500F7E7B9
:1057D000034B0360034B0B6080231360704700BFD3
:1057E000601C0020601A0020034B0360034B0B6019
:1057F0004FF4807313607047E0180020E01400201D
:105800001AB9084205D110467047814303D00020E1
:105810007047012070470120704738B5202000F004
:105820003BFB044628B1002540F8045B00F0CFF8AC
:105830002577204638BD88B12DE9F0410C46164643
:105840001D460746B1F1807F11D34FF0500383F31B
:105850001188BFF36F8FBFF34F8FFEE74FF05003F8
:1058600083F31188BFF36F8FBFF34F8FFEE741B90A
:105870004FF0500383F31188BFF36F8FBFF34F8F47
:10588000FEE701F081FD50B9069B43B14FF0500394
:1058900083F31188BFF36F8FBFF34F8FFEE701F0E3
:1058A000A7FAD7F800802A4621464046FFF7A8FF0E
:1058B000F8B18EB328EA04033B600023069301F09D
:1058C00031FB069B93B148B94FF0E0234FF0805273
:1058D000C3F8042DBFF34F8FBFF36F8F01F048FE65
:1058E000804610F0007F1AD028F07F484046BDE87F
:1058F000F081069B002BE2D05EB900210DB141F092
:105900008061069A2143381D01F018FC4FF0000811
:10591000D5E74FF08071F1E700230693CFE700F061
:1059200001F9D7F800802A4621464046FFF768FF74
:1059300018B116B128EA04043C6000F015F9D3E769
:10594000F8B568B10D460446B1F1807F11D34FF030
:10595000500383F31188BFF36F8FBFF34F8FFEE7C0
:105960004FF0500383F31188BFF36F8FBFF34F8F56
:10597000FEE700F10C0601F03BFA206923682B4397
:10598000236000270AE0216832EA010105D111E015
:10599000216841F0007101F05FFC2846B0420ED052
:1059A0004568036823F07F4213F0806FEBD12168D4
:1059B0001142F2D013F0807FEAD01743E8E7236862
:1059C00023EA0703236001F0ADFA2068F8BD00F177
:1059D000080343604FF0FF328260C360036100231D
:1059E0000360704700230361704743684B609A6807
:1059F0008A605160996008610368013303607047F1
:105A000030B40D68B5F1FF3F11D000F108031C461A
:105A10005B681A68AA42FAD963684B6099608C6027
:105A20006160086103680133036030BC704704693A
:105A3000F2E70369416882688A60416851605A6888
:105A4000824206D0002202611A68013A1A60186880
:105A5000704782685A60F5E782B0002301930D4BCE
:105A60001B68B3F1FF3F08D04FF0500383F3118858
:105A7000BFF36F8FBFF34F8FFEE74FF0500383F3F9
:105A80001188BFF36F8FBFF34F8F019B002BFCD0AA
:105A900002B07047F400002008480068006880F3F6
:105AA00008884FF0000080F3148862B661B6BFF337
:105AB0004F8FBFF36F8F00DF00BF000008ED00E0E5
:105AC000DFF80C00016841F47001016070470000CC
:105AD00088ED00E04FF0807340F8043C21F00101B4
:105AE00040F8081C054B40F80C3C40F8202C6FF0A7
:105AF000020340F8243C4438704700BF595A00085C
:105B0000074B19680868B0E8F04F80F30988BFF3C5
